S011000050726F796563746F322E737265638C
S11300000C9434000C9451000C9451000C94510045
S11300100C9451000C9451000C9451000C94510018
S11300200C9451000C9451000C9451000C94510008
S11300300C9451000C9451000C9451000C945100F8
S11300400C9451000C9451000C9451000C945100E8
S11300500C9451000C94C9000C9451000C94510060
S11300600C9451000C94510011241FBECFEFD8E022
S1130070DEBFCDBF11E0A0E0B1E0E2E9F6E002C0EE
S113008005900D92A230B107D9F721E0A2E0B1E0CA
S113009001C01D92AC30B207E1F70E94A2000C949B
S11300A047030C940000CF93DF938AB18E7F8AB903
S11300B08AB182608AB9C0ECD0E01882A1ECB0E0C9
S11300C01C92E2ECF0E01082888188838C9188692C
S11300D08C9380818660808387E690E09093C5004E
S11300E08093C400DF91CF910895ECE7F0E0108293
S11300F0808180668083EAE7F0E0108280818068F6
S11301008083808188608083808187608083089574
S1130110E0E8F0E080818068808380818062808371
S1130120808182608083E1E8F0E08081886180835F
S11301308081826080838FE39CE990938700809321
S113014086000895F89484B18F6784B90E9453009F
S11301500E9475000E94880078948FE99FE00197BF
S1130160F1F700C00000809100019091010190938B
S113017089008093880080910A0190910B019093EB
S11301808B0080938A00EAE7F0E0808180648083BA
S1130190E4CF1F920F920FB60F9211242F933F9327
S11301A04F935F936F937F938F939F93AF93BF937B
S11301B0EF93FF9380917C008770823009F443C0F1
S11301C028F4882361F0813021F1A4C0843009F43B
S11301D06EC008F452C0853009F483C09BC060919E
S11301E0790070E080E090E00E944E022BEF3AEF3D
S11301F04AE751E40E94DA0220E030E04AE754E49E
S11302000E94B1010E941D027093010160930001DC
S113021081C06091790070E080E090E00E944E021D
S11302202BEF3AEF4AE751E40E94DA0220E030E093
S11302304AE754E40E94B1010E941D0270930B012D
S113024060930A0167C06091790070E080E090E0FB
S11302500E944E022BEF3AEF4AE751E40E94DA0281
S113026020E030E04AE754E40E94B1010E941D02FC
S113027070930901609308014DC06091790070E0AA
S113028080E090E00E944E022BEF3AEF4AE751E4FF
S11302900E94DA0220E030E04AE754E40E94B1010F
S11302A00E941D02709307016093060133C06091A0
S11302B0790070E080E090E00E944E022BEF3AEF6C
S11302C04AE751E40E94DA0220E030E04AE754E4CD
S11302D00E94B1010E941D02709305016093040104
S11302E019C06091790070E080E090E00E944E02B5
S11302F02BEF3AEF4AE751E40E94DA0220E030E0C3
S11303004AE754E40E94B1010E941D027093030164
S11303106093020180917C008770853031F4ECE7B2
S1130320F0E08081887F808305C0ECE7F0E0808185
S11303308F5F8083EAE7F0E0808180618083FF91B2
S1130340EF91BF91AF919F918F917F916F915F9149
S11303504F913F912F910F900FBE0F901F901895C2
S11303605058BB27AA270E94C8010C94A0020E94DF
S1130370920238F00E94990220F039F49F3F19F458
S113038026F40C948F020EF4E095E7FB0C9489029A
S1130390E92F0E94B10258F3BA1762077307840762
S11303A0950720F079F4A6F50C94D3020EF4E095A9
S11303B00B2EBA2FA02D0B01B90190010C01CA011B
S11303C0A0011124FF27591B99F0593F50F4503EC6
S11303D068F11A16F040A22F232F342F4427585FB8
S11303E0F3CF469537952795A795F0405395C9F7D0
S11303F07EF41F16BA0B620B730B840BBAF0915088
S1130400A1F0FF0FBB1F661F771F881FC2F70EC026
S1130410BA0F621F731F841F48F4879577956795F9
S1130420B795F7959E3F08F0B0CF9395880F08F0E5
S11304309927EE0F9795879508950E94B90288F041
S11304409F5798F0B92F9927B751B0F0E1F0660F94
S1130450771F881F991F1AF0BA95C9F714C0B130D5
S113046091F00E94D302B1E008950C94D302672F57
S1130470782F8827B85F39F0B93FCCF38695779504
S11304806795B395D9F73EF49095809570956195ED
S11304907F4F8F4F9F4F0895E89409C097FB3EF418
S11304A090958095709561957F4F8F4F9F4F9923BD
S11304B0A9F0F92F96E9BB279395F695879577953B
S11304C06795B795F111F8CFFAF4BB0F11F460FFFB
S11304D01BC06F5F7F4F8F4F9F4F16C0882311F053
S11304E096E911C0772321F09EE8872F762F05C067
S11304F0662371F096E8862F70E060E02AF09A9502
S1130500660F771F881FDAF7880F9695879597F9F6
S1130510089597F99F6780E870E060E008959FEF81
S113052080EC089500240A94161617061806090686
S1130530089500240A941216130614060506089555
S1130540092E0394000C11F4882352F0BB0F40F4DD
S1130550BF2B11F460FF04C06F5F7F4F8F4F9F4F1D
S1130560089557FD9058440F551F59F05F3F71F09F
S11305704795880F97FB991F61F09F3F79F0879506
S11305800895121613061406551FF2CF4695F1DF8F
S113059008C0161617061806991FF1CF869571051F
S11305A0610508940895E894BB2766277727CB0153
S11305B097F908950E94ED020C94A0020E94920201
S11305C038F00E94990220F0952311F00C948902CE
S11305D00C948F0211240C94D4020E94B10270F383
S11305E0959FC1F3950F50E0551F629FF001729FD4
S11305F0BB27F00DB11D639FAA27F00DB11DAA1FE3
S1130600649F6627B00DA11D661F829F2227B00D2F
S1130610A11D621F739FB00DA11D621F839FA00DBA
S1130620611D221F749F3327A00D611D231F849F0A
S1130630600D211D822F762F6A2F11249F57504061
S11306409AF0F1F088234AF0EE0FFF1FBB1F661FDC
S1130650771F881F91505040A9F79E3F510580F0A5
S11306600C9489020C94D4025F3FE4F3983ED4F3D3
S1130670869577956795B795F795E7959F5FC1F749
S1130680FE2B880F911D9695879597F90895F894F8
S1050690FFCF96
S1050692CF078C
S9030000FC
