:100000000C9434000C9451000C9451000C94510049
:100010000C9451000C9451000C9451000C9451001C
:100020000C9451000C9451000C9451000C9451000C
:100030000C9451000C9451000C9451000C945100FC
:100040000C9451000C9451000C9451000C945100EC
:100050000C9451000C94BB000C9451000C94510072
:100060000C9451000C94510011241FBECFEFD8E026
:10007000DEBFCDBF11E0A0E0B1E0ECECF1E002C0EA
:1000800005900D92A230B107D9F721E0A2E0B1E0CE
:1000900001C01D92A230B207E1F70E94A2000C94A9
:1000A000E4000C940000CF93DF938AB18E7F8AB96D
:1000B0008AB182608AB9C0ECD0E01882A1ECB0E0CD
:1000C0001C92E2ECF0E01082888188838C91886930
:1000D0008C9380818660808387E690E09093C50052
:1000E0008093C400DF91CF910895ECE7F0E0108297
:1000F000808180648083EAE7F0E0108280818068FC
:100100008083808188608083808187608083089578
:10011000E0E8F0E080818068808380818062808375
:10012000808182608083E1E8F0E080818861808363
:100130008081826080838FE39CE990938700809325
:1001400086000895F89484B18F6784B90E945300A3
:100150000E9475000E94880078948091000190911F
:1001600001019093890080938800EAE7F0E08081A4
:1001700080648083F2CF1F920F920FB60F921124EA
:100180002F938F939F93EF93FF9380910001909112
:10019000010101969093010180930001809100017B
:1001A000909101018F399F4029F4EAE7F0E08081C6
:1001B00080618083FF91EF919F918F912F910F909C
:0C01C0000FBE0F901F901895F894FFCF11
:0201CC00CF075B
:00000001FF
